{"abi":[{"inputs":[],"stateMutability":"nonpayable","type":"constructor"},{"inputs":[],"name":"depositIntoJackpot","outputs":[],"stateMutability":"payable","type":"function"},{"inputs":[],"name":"drawLottery","outputs":[{"internalType":"address","name":"","type":"address"}],"stateMutability":"nonpayable","type":"function"},{"inputs":[],"name":"getJackpotAmount","outputs":[{"internalType":"uint256","name":"","type":"uint256"}],"stateMutability":"view","type":"function"}],"devdoc":{"kind":"dev","methods":{},"version":1},"evm":{"assembly":"    /* \"Lottery.sol\":58:1660  contract Lottery {... */\n  mstore(0x40, 0x80)\n    /* \"Lottery.sol\":266:322  constructor() {... */\n  callvalue\n  dup1\n  iszero\n  tag_1\n  jumpi\n  0x00\n  dup1\n  revert\ntag_1:\n  pop\n    /* \"Lottery.sol\":305:315  msg.sender */\n  caller\n    /* \"Lottery.sol\":290:302  ownerAddress */\n  0x00\n  dup1\n    /* \"Lottery.sol\":290:315  ownerAddress = msg.sender */\n  0x0100\n  exp\n  dup2\n  sload\n  dup2\n  0xffffffffffffffffffffffffffffffffffffffff\n  mul\n  not\n  and\n  swap1\n  dup4\n  0xffffffffffffffffffffffffffffffffffffffff\n  and\n  mul\n  or\n  swap1\n  sstore\n  pop\n    /* \"Lottery.sol\":58:1660  contract Lottery {... */\n  dataSize(sub_0)\n  dup1\n  dataOffset(sub_0)\n  0x00\n  codecopy\n  0x00\n  return\nstop\n\nsub_0: assembly {\n        /* \"Lottery.sol\":58:1660  contract Lottery {... */\n      mstore(0x40, 0x80)\n      jumpi(tag_1, lt(calldatasize, 0x04))\n      shr(0xe0, calldataload(0x00))\n      dup1\n      0x27e605ec\n      eq\n      tag_2\n      jumpi\n      dup1\n      0xe89fa4d7\n      eq\n      tag_3\n      jumpi\n      dup1\n      0xed8b6556\n      eq\n      tag_4\n      jumpi\n    tag_1:\n      0x00\n      dup1\n      revert\n        /* \"Lottery.sol\":1207:1658  function drawLottery() onlyOwner external returns (address) {... */\n    tag_2:\n      callvalue\n      dup1\n      iszero\n      tag_5\n      jumpi\n      0x00\n      dup1\n      revert\n    tag_5:\n      pop\n      tag_6\n      tag_7\n      jump\t// in\n    tag_6:\n      mload(0x40)\n      tag_8\n      swap2\n      swap1\n      tag_9\n      jump\t// in\n    tag_8:\n      mload(0x40)\n      dup1\n      swap2\n      sub\n      swap1\n      return\n        /* \"Lottery.sol\":418:778  function depositIntoJackpot() external payable {... */\n    tag_3:\n      tag_10\n      tag_11\n      jump\t// in\n    tag_10:\n      stop\n        /* \"Lottery.sol\":784:878  function getJackpotAmount() external view returns (uint) {... */\n    tag_4:\n      callvalue\n      dup1\n      iszero\n      tag_12\n      jumpi\n      0x00\n      dup1\n      revert\n    tag_12:\n      pop\n      tag_13\n      tag_14\n      jump\t// in\n    tag_13:\n      mload(0x40)\n      tag_15\n      swap2\n      swap1\n      tag_16\n      jump\t// in\n    tag_15:\n      mload(0x40)\n      dup1\n      swap2\n      sub\n      swap1\n      return\n        /* \"Lottery.sol\":1207:1658  function drawLottery() onlyOwner external returns (address) {... */\n    tag_7:\n        /* \"Lottery.sol\":1258:1265  address */\n      0x00\n        /* \"Lottery.sol\":381:393  ownerAddress */\n      dup1\n      0x00\n      swap1\n      sload\n      swap1\n      0x0100\n      exp\n      swap1\n      div\n      0xffffffffffffffffffffffffffffffffffffffff\n      and\n        /* \"Lottery.sol\":367:393  msg.sender == ownerAddress */\n      0xffffffffffffffffffffffffffffffffffffffff\n      and\n        /* \"Lottery.sol\":367:377  msg.sender */\n      caller\n        /* \"Lottery.sol\":367:393  msg.sender == ownerAddress */\n      0xffffffffffffffffffffffffffffffffffffffff\n      and\n      eq\n        /* \"Lottery.sol\":359:394  require(msg.sender == ownerAddress) */\n      tag_18\n      jumpi\n      0x00\n      dup1\n      revert\n    tag_18:\n        /* \"Lottery.sol\":1277:1287  uint index */\n      0x00\n        /* \"Lottery.sol\":1301:1308  players */\n      0x03\n        /* \"Lottery.sol\":1301:1315  players.length */\n      dup1\n      sload\n      swap1\n      pop\n        /* \"Lottery.sol\":1290:1298  random() */\n      tag_20\n        /* \"Lottery.sol\":1290:1296  random */\n      tag_21\n        /* \"Lottery.sol\":1290:1298  random() */\n      jump\t// in\n    tag_20:\n        /* \"Lottery.sol\":1290:1315  random() % players.length */\n      tag_22\n      swap2\n      swap1\n      tag_23\n      jump\t// in\n    tag_22:\n        /* \"Lottery.sol\":1277:1315  uint index = random() % players.length */\n      swap1\n      pop\n        /* \"Lottery.sol\":1325:1339  address winner */\n      0x00\n        /* \"Lottery.sol\":1350:1357  players */\n      0x03\n        /* \"Lottery.sol\":1358:1363  index */\n      dup3\n        /* \"Lottery.sol\":1350:1364  players[index] */\n      dup2\n      sload\n      dup2\n      lt\n      tag_24\n      jumpi\n      tag_25\n      tag_26\n      jump\t// in\n    tag_25:\n    tag_24:\n      swap1\n      0x00\n      mstore\n      keccak256(0x00, 0x20)\n      add\n      0x00\n      swap1\n      sload\n      swap1\n      0x0100\n      exp\n      swap1\n      div\n      0xffffffffffffffffffffffffffffffffffffffff\n      and\n        /* \"Lottery.sol\":1325:1365  address winner = address(players[index]) */\n      swap1\n      pop\n        /* \"Lottery.sol\":1375:1395  uint contractBalance */\n      0x00\n        /* \"Lottery.sol\":1398:1419  address(this).balance */\n      selfbalance\n        /* \"Lottery.sol\":1375:1419  uint contractBalance = address(this).balance */\n      swap1\n      pop\n        /* \"Lottery.sol\":1438:1444  winner */\n      dup2\n        /* \"Lottery.sol\":1430:1454  payable(winner).transfer */\n      0xffffffffffffffffffffffffffffffffffffffff\n      and\n        /* \"Lottery.sol\":1430:1471  payable(winner).transfer(contractBalance) */\n      0x08fc\n        /* \"Lottery.sol\":1455:1470  contractBalance */\n      dup3\n        /* \"Lottery.sol\":1430:1471  payable(winner).transfer(contractBalance) */\n      swap1\n      dup2\n      iszero\n      mul\n      swap1\n      mload(0x40)\n      0x00\n      mload(0x40)\n      dup1\n      dup4\n      sub\n      dup2\n      dup6\n      dup9\n      dup9\n      call\n      swap4\n      pop\n      pop\n      pop\n      pop\n      iszero\n      dup1\n      iszero\n      tag_29\n      jumpi\n      returndatasize\n      0x00\n      dup1\n      returndatacopy\n      revert(0x00, returndatasize)\n    tag_29:\n      pop\n        /* \"Lottery.sol\":1507:1522  contractBalance */\n      dup1\n        /* \"Lottery.sol\":1481:1495  winnersHistory */\n      0x04\n        /* \"Lottery.sol\":1481:1503  winnersHistory[winner] */\n      0x00\n        /* \"Lottery.sol\":1496:1502  winner */\n      dup5\n        /* \"Lottery.sol\":1481:1503  winnersHistory[winner] */\n      0xffffffffffffffffffffffffffffffffffffffff\n      and\n      0xffffffffffffffffffffffffffffffffffffffff\n      and\n      dup2\n      mstore\n      0x20\n      add\n      swap1\n      dup2\n      mstore\n      0x20\n      add\n      0x00\n      keccak256\n      0x00\n        /* \"Lottery.sol\":1481:1522  winnersHistory[winner] += contractBalance */\n      dup3\n      dup3\n      sload\n      tag_30\n      swap2\n      swap1\n      tag_31\n      jump\t// in\n    tag_30:\n      swap3\n      pop\n      pop\n      dup2\n      swap1\n      sstore\n      pop\n        /* \"Lottery.sol\":1533:1564  resetPlayersToAmountDeposited() */\n      tag_32\n        /* \"Lottery.sol\":1533:1562  resetPlayersToAmountDeposited */\n      tag_33\n        /* \"Lottery.sol\":1533:1564  resetPlayersToAmountDeposited() */\n      jump\t// in\n    tag_32:\n        /* \"Lottery.sol\":1598:1599  0 */\n      0x00\n        /* \"Lottery.sol\":1584:1600  new address[](0) */\n      0xffffffffffffffff\n      dup2\n      gt\n      iszero\n      tag_34\n      jumpi\n      tag_35\n      tag_36\n      jump\t// in\n    tag_35:\n    tag_34:\n      mload(0x40)\n      swap1\n      dup1\n      dup3\n      mstore\n      dup1\n      0x20\n      mul\n      0x20\n      add\n      dup3\n      add\n      0x40\n      mstore\n      dup1\n      iszero\n      tag_37\n      jumpi\n      dup2\n      0x20\n      add\n      0x20\n      dup3\n      mul\n      dup1\n      calldatasize\n      dup4\n      calldatacopy\n      dup1\n      dup3\n      add\n      swap2\n      pop\n      pop\n      swap1\n      pop\n    tag_37:\n      pop\n        /* \"Lottery.sol\":1574:1581  players */\n      0x03\n        /* \"Lottery.sol\":1574:1600  players = new address[](0) */\n      swap1\n      dup1\n      mload\n      swap1\n      0x20\n      add\n      swap1\n      tag_38\n      swap3\n      swap2\n      swap1\n      tag_39\n      jump\t// in\n    tag_38:\n      pop\n        /* \"Lottery.sol\":1626:1627  0 */\n      0x00\n        /* \"Lottery.sol\":1610:1623  jackpotAmount */\n      0x01\n        /* \"Lottery.sol\":1610:1627  jackpotAmount = 0 */\n      dup2\n      swap1\n      sstore\n      pop\n        /* \"Lottery.sol\":1645:1651  winner */\n      dup2\n        /* \"Lottery.sol\":1638:1651  return winner */\n      swap4\n      pop\n      pop\n      pop\n      pop\n        /* \"Lottery.sol\":1207:1658  function drawLottery() onlyOwner external returns (address) {... */\n      swap1\n      jump\t// out\n        /* \"Lottery.sol\":418:778  function depositIntoJackpot() external payable {... */\n    tag_11:\n        /* \"Lottery.sol\":492:501  msg.value */\n      callvalue\n        /* \"Lottery.sol\":475:488  jackpotAmount */\n      0x01\n      0x00\n        /* \"Lottery.sol\":475:501  jackpotAmount += msg.value */\n      dup3\n      dup3\n      sload\n      tag_41\n      swap2\n      swap1\n      tag_31\n      jump\t// in\n    tag_41:\n      swap3\n      pop\n      pop\n      dup2\n      swap1\n      sstore\n      pop\n        /* \"Lottery.sol\":512:526  address player */\n      0x00\n        /* \"Lottery.sol\":529:539  msg.sender */\n      caller\n        /* \"Lottery.sol\":512:539  address player = msg.sender */\n      swap1\n      pop\n        /* \"Lottery.sol\":589:590  0 */\n      0x00\n        /* \"Lottery.sol\":553:577  playersToAmountDeposited */\n      0x02\n        /* \"Lottery.sol\":553:585  playersToAmountDeposited[player] */\n      0x00\n        /* \"Lottery.sol\":578:584  player */\n      dup4\n        /* \"Lottery.sol\":553:585  playersToAmountDeposited[player] */\n      0xffffffffffffffffffffffffffffffffffffffff\n      and\n      0xffffffffffffffffffffffffffffffffffffffff\n      and\n      dup2\n      mstore\n      0x20\n      add\n      swap1\n      dup2\n      mstore\n      0x20\n      add\n      0x00\n      keccak256\n      sload\n        /* \"Lottery.sol\":553:590  playersToAmountDeposited[player] == 0 */\n      eq\n        /* \"Lottery.sol\":549:716  if (playersToAmountDeposited[player] == 0) {... */\n      iszero\n      tag_42\n      jumpi\n        /* \"Lottery.sol\":606:613  players */\n      0x03\n        /* \"Lottery.sol\":619:625  player */\n      dup2\n        /* \"Lottery.sol\":606:626  players.push(player) */\n      swap1\n      dup1\n      0x01\n      dup2\n      sload\n      add\n      dup1\n      dup3\n      sstore\n      dup1\n      swap2\n      pop\n      pop\n      0x01\n      swap1\n      sub\n      swap1\n      0x00\n      mstore\n      keccak256(0x00, 0x20)\n      add\n      0x00\n      swap1\n      swap2\n      swap1\n      swap2\n      swap1\n      swap2\n      0x0100\n      exp\n      dup2\n      sload\n      dup2\n      0xffffffffffffffffffffffffffffffffffffffff\n      mul\n      not\n      and\n      swap1\n      dup4\n      0xffffffffffffffffffffffffffffffffffffffff\n      and\n      mul\n      or\n      swap1\n      sstore\n      pop\n        /* \"Lottery.sol\":675:684  msg.value */\n      callvalue\n        /* \"Lottery.sol\":640:664  playersToAmountDeposited */\n      0x02\n        /* \"Lottery.sol\":640:672  playersToAmountDeposited[player] */\n      0x00\n        /* \"Lottery.sol\":665:671  player */\n      dup4\n        /* \"Lottery.sol\":640:672  playersToAmountDeposited[player] */\n      0xffffffffffffffffffffffffffffffffffffffff\n      and\n      0xffffffffffffffffffffffffffffffffffffffff\n      and\n      dup2\n      mstore\n      0x20\n      add\n      swap1\n      dup2\n      mstore\n      0x20\n      add\n      0x00\n      keccak256\n        /* \"Lottery.sol\":640:684  playersToAmountDeposited[player] = msg.value */\n      dup2\n      swap1\n      sstore\n      pop\n        /* \"Lottery.sol\":699:706  return; */\n      pop\n      jump(tag_40)\n        /* \"Lottery.sol\":549:716  if (playersToAmountDeposited[player] == 0) {... */\n    tag_42:\n        /* \"Lottery.sol\":762:771  msg.value */\n      callvalue\n        /* \"Lottery.sol\":726:750  playersToAmountDeposited */\n      0x02\n        /* \"Lottery.sol\":726:758  playersToAmountDeposited[player] */\n      0x00\n        /* \"Lottery.sol\":751:757  player */\n      dup4\n        /* \"Lottery.sol\":726:758  playersToAmountDeposited[player] */\n      0xffffffffffffffffffffffffffffffffffffffff\n      and\n      0xffffffffffffffffffffffffffffffffffffffff\n      and\n      dup2\n      mstore\n      0x20\n      add\n      swap1\n      dup2\n      mstore\n      0x20\n      add\n      0x00\n      keccak256\n      0x00\n        /* \"Lottery.sol\":726:771  playersToAmountDeposited[player] += msg.value */\n      dup3\n      dup3\n      sload\n      tag_44\n      swap2\n      swap1\n      tag_31\n      jump\t// in\n    tag_44:\n      swap3\n      pop\n      pop\n      dup2\n      swap1\n      sstore\n      pop\n        /* \"Lottery.sol\":465:778  {... */\n      pop\n        /* \"Lottery.sol\":418:778  function depositIntoJackpot() external payable {... */\n    tag_40:\n      jump\t// out\n        /* \"Lottery.sol\":784:878  function getJackpotAmount() external view returns (uint) {... */\n    tag_14:\n        /* \"Lottery.sol\":835:839  uint */\n      0x00\n        /* \"Lottery.sol\":858:871  jackpotAmount */\n      sload(0x01)\n        /* \"Lottery.sol\":851:871  return jackpotAmount */\n      swap1\n      pop\n        /* \"Lottery.sol\":784:878  function getJackpotAmount() external view returns (uint) {... */\n      swap1\n      jump\t// out\n        /* \"Lottery.sol\":884:1026  function random() internal view returns (uint) {... */\n    tag_21:\n        /* \"Lottery.sol\":925:929  uint */\n      0x00\n        /* \"Lottery.sol\":974:990  block.difficulty */\n      difficulty\n        /* \"Lottery.sol\":992:1007  block.timestamp */\n      timestamp\n        /* \"Lottery.sol\":1009:1016  players */\n      0x03\n        /* \"Lottery.sol\":963:1017  abi.encode(block.difficulty, block.timestamp, players) */\n      add(0x20, mload(0x40))\n      tag_47\n      swap4\n      swap3\n      swap2\n      swap1\n      tag_48\n      jump\t// in\n    tag_47:\n      mload(0x40)\n      0x20\n      dup2\n      dup4\n      sub\n      sub\n      dup2\n      mstore\n      swap1\n      0x40\n      mstore\n        /* \"Lottery.sol\":953:1018  keccak256(abi.encode(block.difficulty, block.timestamp, players)) */\n      dup1\n      mload\n      swap1\n      0x20\n      add\n      keccak256\n        /* \"Lottery.sol\":948:1019  uint(keccak256(abi.encode(block.difficulty, block.timestamp, players))) */\n      0x00\n      shr\n        /* \"Lottery.sol\":941:1019  return uint(keccak256(abi.encode(block.difficulty, block.timestamp, players))) */\n      swap1\n      pop\n        /* \"Lottery.sol\":884:1026  function random() internal view returns (uint) {... */\n      swap1\n      jump\t// out\n        /* \"Lottery.sol\":1032:1201  function resetPlayersToAmountDeposited() internal {... */\n    tag_33:\n        /* \"Lottery.sol\":1097:1103  uint i */\n      0x00\n        /* \"Lottery.sol\":1092:1195  for (uint i=0; i<players.length; i++) {... */\n    tag_50:\n        /* \"Lottery.sol\":1109:1116  players */\n      0x03\n        /* \"Lottery.sol\":1109:1123  players.length */\n      dup1\n      sload\n      swap1\n      pop\n        /* \"Lottery.sol\":1107:1108  i */\n      dup2\n        /* \"Lottery.sol\":1107:1123  i<players.length */\n      lt\n        /* \"Lottery.sol\":1092:1195  for (uint i=0; i<players.length; i++) {... */\n      iszero\n      tag_51\n      jumpi\n        /* \"Lottery.sol\":1183:1184  0 */\n      0x00\n        /* \"Lottery.sol\":1144:1168  playersToAmountDeposited */\n      0x02\n        /* \"Lottery.sol\":1144:1180  playersToAmountDeposited[players[i]] */\n      0x00\n        /* \"Lottery.sol\":1169:1176  players */\n      0x03\n        /* \"Lottery.sol\":1177:1178  i */\n      dup5\n        /* \"Lottery.sol\":1169:1179  players[i] */\n      dup2\n      sload\n      dup2\n      lt\n      tag_53\n      jumpi\n      tag_54\n      tag_26\n      jump\t// in\n    tag_54:\n    tag_53:\n      swap1\n      0x00\n      mstore\n      keccak256(0x00, 0x20)\n      add\n      0x00\n      swap1\n      sload\n      swap1\n      0x0100\n      exp\n      swap1\n      div\n      0xffffffffffffffffffffffffffffffffffffffff\n      and\n        /* \"Lottery.sol\":1144:1180  playersToAmountDeposited[players[i]] */\n      0xffffffffffffffffffffffffffffffffffffffff\n      and\n      0xffffffffffffffffffffffffffffffffffffffff\n      and\n      dup2\n      mstore\n      0x20\n      add\n      swap1\n      dup2\n      mstore\n      0x20\n      add\n      0x00\n      keccak256\n        /* \"Lottery.sol\":1144:1184  playersToAmountDeposited[players[i]] = 0 */\n      dup2\n      swap1\n      sstore\n      pop\n        /* \"Lottery.sol\":1125:1128  i++ */\n      dup1\n      dup1\n      tag_56\n      swap1\n      tag_57\n      jump\t// in\n    tag_56:\n      swap2\n      pop\n      pop\n        /* \"Lottery.sol\":1092:1195  for (uint i=0; i<players.length; i++) {... */\n      jump(tag_50)\n    tag_51:\n      pop\n        /* \"Lottery.sol\":1032:1201  function resetPlayersToAmountDeposited() internal {... */\n      jump\t// out\n    tag_39:\n      dup3\n      dup1\n      sload\n      dup3\n      dup3\n      sstore\n      swap1\n      0x00\n      mstore\n      keccak256(0x00, 0x20)\n      swap1\n      dup2\n      add\n      swap3\n      dup3\n      iszero\n      tag_58\n      jumpi\n      swap2\n      0x20\n      mul\n      dup3\n      add\n    tag_59:\n      dup3\n      dup2\n      gt\n      iszero\n      tag_60\n      jumpi\n      dup3\n      mload\n      dup3\n      exp(0x0100, 0x00)\n      dup2\n      sload\n      dup2\n      0xffffffffffffffffffffffffffffffffffffffff\n      mul\n      not\n      and\n      swap1\n      dup4\n      0xffffffffffffffffffffffffffffffffffffffff\n      and\n      mul\n      or\n      swap1\n      sstore\n      pop\n      swap2\n      0x20\n      add\n      swap2\n      swap1\n      0x01\n      add\n      swap1\n      jump(tag_59)\n    tag_60:\n    tag_58:\n      pop\n      swap1\n      pop\n      tag_61\n      swap2\n      swap1\n      tag_62\n      jump\t// in\n    tag_61:\n      pop\n      swap1\n      jump\t// out\n    tag_62:\n    tag_63:\n      dup1\n      dup3\n      gt\n      iszero\n      tag_64\n      jumpi\n      0x00\n      dup2\n      0x00\n      swap1\n      sstore\n      pop\n      0x01\n      add\n      jump(tag_63)\n    tag_64:\n      pop\n      swap1\n      jump\t// out\n        /* \"#utility.yul\":7:133   */\n    tag_65:\n        /* \"#utility.yul\":44:51   */\n      0x00\n        /* \"#utility.yul\":84:126   */\n      0xffffffffffffffffffffffffffffffffffffffff\n        /* \"#utility.yul\":77:82   */\n      dup3\n        /* \"#utility.yul\":73:127   */\n      and\n        /* \"#utility.yul\":62:127   */\n      swap1\n      pop\n        /* \"#utility.yul\":7:133   */\n      swap2\n      swap1\n      pop\n      jump\t// out\n        /* \"#utility.yul\":139:235   */\n    tag_66:\n        /* \"#utility.yul\":176:183   */\n      0x00\n        /* \"#utility.yul\":205:229   */\n      tag_86\n        /* \"#utility.yul\":223:228   */\n      dup3\n        /* \"#utility.yul\":205:229   */\n      tag_65\n      jump\t// in\n    tag_86:\n        /* \"#utility.yul\":194:229   */\n      swap1\n      pop\n        /* \"#utility.yul\":139:235   */\n      swap2\n      swap1\n      pop\n      jump\t// out\n        /* \"#utility.yul\":241:359   */\n    tag_67:\n        /* \"#utility.yul\":328:352   */\n      tag_88\n        /* \"#utility.yul\":346:351   */\n      dup2\n        /* \"#utility.yul\":328:352   */\n      tag_66\n      jump\t// in\n    tag_88:\n        /* \"#utility.yul\":323:326   */\n      dup3\n        /* \"#utility.yul\":316:353   */\n      mstore\n        /* \"#utility.yul\":241:359   */\n      pop\n      pop\n      jump\t// out\n        /* \"#utility.yul\":365:587   */\n    tag_9:\n        /* \"#utility.yul\":458:462   */\n      0x00\n        /* \"#utility.yul\":496:498   */\n      0x20\n        /* \"#utility.yul\":485:494   */\n      dup3\n        /* \"#utility.yul\":481:499   */\n      add\n        /* \"#utility.yul\":473:499   */\n      swap1\n      pop\n        /* \"#utility.yul\":509:580   */\n      tag_90\n        /* \"#utility.yul\":577:578   */\n      0x00\n        /* \"#utility.yul\":566:575   */\n      dup4\n        /* \"#utility.yul\":562:579   */\n      add\n        /* \"#utility.yul\":553:559   */\n      dup5\n        /* \"#utility.yul\":509:580   */\n      tag_67\n      jump\t// in\n    tag_90:\n        /* \"#utility.yul\":365:587   */\n      swap3\n      swap2\n      pop\n      pop\n      jump\t// out\n        /* \"#utility.yul\":593:670   */\n    tag_68:\n        /* \"#utility.yul\":630:637   */\n      0x00\n        /* \"#utility.yul\":659:664   */\n      dup2\n        /* \"#utility.yul\":648:664   */\n      swap1\n      pop\n        /* \"#utility.yul\":593:670   */\n      swap2\n      swap1\n      pop\n      jump\t// out\n        /* \"#utility.yul\":676:794   */\n    tag_69:\n        /* \"#utility.yul\":763:787   */\n      tag_93\n        /* \"#utility.yul\":781:786   */\n      dup2\n        /* \"#utility.yul\":763:787   */\n      tag_68\n      jump\t// in\n    tag_93:\n        /* \"#utility.yul\":758:761   */\n      dup3\n        /* \"#utility.yul\":751:788   */\n      mstore\n        /* \"#utility.yul\":676:794   */\n      pop\n      pop\n      jump\t// out\n        /* \"#utility.yul\":800:1022   */\n    tag_16:\n        /* \"#utility.yul\":893:897   */\n      0x00\n        /* \"#utility.yul\":931:933   */\n      0x20\n        /* \"#utility.yul\":920:929   */\n      dup3\n        /* \"#utility.yul\":916:934   */\n      add\n        /* \"#utility.yul\":908:934   */\n      swap1\n      pop\n        /* \"#utility.yul\":944:1015   */\n      tag_95\n        /* \"#utility.yul\":1012:1013   */\n      0x00\n        /* \"#utility.yul\":1001:1010   */\n      dup4\n        /* \"#utility.yul\":997:1014   */\n      add\n        /* \"#utility.yul\":988:994   */\n      dup5\n        /* \"#utility.yul\":944:1015   */\n      tag_69\n      jump\t// in\n    tag_95:\n        /* \"#utility.yul\":800:1022   */\n      swap3\n      swap2\n      pop\n      pop\n      jump\t// out\n        /* \"#utility.yul\":1028:1208   */\n    tag_70:\n        /* \"#utility.yul\":1076:1153   */\n      0x4e487b7100000000000000000000000000000000000000000000000000000000\n        /* \"#utility.yul\":1073:1074   */\n      0x00\n        /* \"#utility.yul\":1066:1154   */\n      mstore\n        /* \"#utility.yul\":1173:1177   */\n      0x12\n        /* \"#utility.yul\":1170:1171   */\n      0x04\n        /* \"#utility.yul\":1163:1178   */\n      mstore\n        /* \"#utility.yul\":1197:1201   */\n      0x24\n        /* \"#utility.yul\":1194:1195   */\n      0x00\n        /* \"#utility.yul\":1187:1202   */\n      revert\n        /* \"#utility.yul\":1214:1390   */\n    tag_23:\n        /* \"#utility.yul\":1246:1247   */\n      0x00\n        /* \"#utility.yul\":1263:1283   */\n      tag_98\n        /* \"#utility.yul\":1281:1282   */\n      dup3\n        /* \"#utility.yul\":1263:1283   */\n      tag_68\n      jump\t// in\n    tag_98:\n        /* \"#utility.yul\":1258:1283   */\n      swap2\n      pop\n        /* \"#utility.yul\":1297:1317   */\n      tag_99\n        /* \"#utility.yul\":1315:1316   */\n      dup4\n        /* \"#utility.yul\":1297:1317   */\n      tag_68\n      jump\t// in\n    tag_99:\n        /* \"#utility.yul\":1292:1317   */\n      swap3\n      pop\n        /* \"#utility.yul\":1336:1337   */\n      dup3\n        /* \"#utility.yul\":1326:1361   */\n      tag_100\n      jumpi\n        /* \"#utility.yul\":1341:1359   */\n      tag_101\n      tag_70\n      jump\t// in\n    tag_101:\n        /* \"#utility.yul\":1326:1361   */\n    tag_100:\n        /* \"#utility.yul\":1382:1383   */\n      dup3\n        /* \"#utility.yul\":1379:1380   */\n      dup3\n        /* \"#utility.yul\":1375:1384   */\n      mod\n        /* \"#utility.yul\":1370:1384   */\n      swap1\n      pop\n        /* \"#utility.yul\":1214:1390   */\n      swap3\n      swap2\n      pop\n      pop\n      jump\t// out\n        /* \"#utility.yul\":1396:1576   */\n    tag_26:\n        /* \"#utility.yul\":1444:1521   */\n      0x4e487b7100000000000000000000000000000000000000000000000000000000\n        /* \"#utility.yul\":1441:1442   */\n      0x00\n        /* \"#utility.yul\":1434:1522   */\n      mstore\n        /* \"#utility.yul\":1541:1545   */\n      0x32\n        /* \"#utility.yul\":1538:1539   */\n      0x04\n        /* \"#utility.yul\":1531:1546   */\n      mstore\n        /* \"#utility.yul\":1565:1569   */\n      0x24\n        /* \"#utility.yul\":1562:1563   */\n      0x00\n        /* \"#utility.yul\":1555:1570   */\n      revert\n        /* \"#utility.yul\":1582:1762   */\n    tag_71:\n        /* \"#utility.yul\":1630:1707   */\n      0x4e487b7100000000000000000000000000000000000000000000000000000000\n        /* \"#utility.yul\":1627:1628   */\n      0x00\n        /* \"#utility.yul\":1620:1708   */\n      mstore\n        /* \"#utility.yul\":1727:1731   */\n      0x11\n        /* \"#utility.yul\":1724:1725   */\n      0x04\n        /* \"#utility.yul\":1717:1732   */\n      mstore\n        /* \"#utility.yul\":1751:1755   */\n      0x24\n        /* \"#utility.yul\":1748:1749   */\n      0x00\n        /* \"#utility.yul\":1741:1756   */\n      revert\n        /* \"#utility.yul\":1768:2073   */\n    tag_31:\n        /* \"#utility.yul\":1808:1811   */\n      0x00\n        /* \"#utility.yul\":1827:1847   */\n      tag_105\n        /* \"#utility.yul\":1845:1846   */\n      dup3\n        /* \"#utility.yul\":1827:1847   */\n      tag_68\n      jump\t// in\n    tag_105:\n        /* \"#utility.yul\":1822:1847   */\n      swap2\n      pop\n        /* \"#utility.yul\":1861:1881   */\n      tag_106\n        /* \"#utility.yul\":1879:1880   */\n      dup4\n        /* \"#utility.yul\":1861:1881   */\n      tag_68\n      jump\t// in\n    tag_106:\n        /* \"#utility.yul\":1856:1881   */\n      swap3\n      pop\n        /* \"#utility.yul\":2015:2016   */\n      dup3\n        /* \"#utility.yul\":1947:2013   */\n      0xffffffffffffffffffffffffffffffffffffffffffffffffffffffffffffffff\n        /* \"#utility.yul\":1943:2017   */\n      sub\n        /* \"#utility.yul\":1940:1941   */\n      dup3\n        /* \"#utility.yul\":1937:2018   */\n      gt\n        /* \"#utility.yul\":1934:2041   */\n      iszero\n      tag_107\n      jumpi\n        /* \"#utility.yul\":2021:2039   */\n      tag_108\n      tag_71\n      jump\t// in\n    tag_108:\n        /* \"#utility.yul\":1934:2041   */\n    tag_107:\n        /* \"#utility.yul\":2065:2066   */\n      dup3\n        /* \"#utility.yul\":2062:2063   */\n      dup3\n        /* \"#utility.yul\":2058:2067   */\n      add\n        /* \"#utility.yul\":2051:2067   */\n      swap1\n      pop\n        /* \"#utility.yul\":1768:2073   */\n      swap3\n      swap2\n      pop\n      pop\n      jump\t// out\n        /* \"#utility.yul\":2079:2259   */\n    tag_36:\n        /* \"#utility.yul\":2127:2204   */\n      0x4e487b7100000000000000000000000000000000000000000000000000000000\n        /* \"#utility.yul\":2124:2125   */\n      0x00\n        /* \"#utility.yul\":2117:2205   */\n      mstore\n        /* \"#utility.yul\":2224:2228   */\n      0x41\n        /* \"#utility.yul\":2221:2222   */\n      0x04\n        /* \"#utility.yul\":2214:2229   */\n      mstore\n        /* \"#utility.yul\":2248:2252   */\n      0x24\n        /* \"#utility.yul\":2245:2246   */\n      0x00\n        /* \"#utility.yul\":2238:2253   */\n      revert\n        /* \"#utility.yul\":2265:2376   */\n    tag_72:\n        /* \"#utility.yul\":2329:2335   */\n      0x00\n        /* \"#utility.yul\":2363:2368   */\n      dup2\n        /* \"#utility.yul\":2357:2369   */\n      sload\n        /* \"#utility.yul\":2347:2369   */\n      swap1\n      pop\n        /* \"#utility.yul\":2265:2376   */\n      swap2\n      swap1\n      pop\n      jump\t// out\n        /* \"#utility.yul\":2382:2566   */\n    tag_73:\n        /* \"#utility.yul\":2481:2492   */\n      0x00\n        /* \"#utility.yul\":2515:2521   */\n      dup3\n        /* \"#utility.yul\":2510:2513   */\n      dup3\n        /* \"#utility.yul\":2503:2522   */\n      mstore\n        /* \"#utility.yul\":2555:2559   */\n      0x20\n        /* \"#utility.yul\":2550:2553   */\n      dup3\n        /* \"#utility.yul\":2546:2560   */\n      add\n        /* \"#utility.yul\":2531:2560   */\n      swap1\n      pop\n        /* \"#utility.yul\":2382:2566   */\n      swap3\n      swap2\n      pop\n      pop\n      jump\t// out\n        /* \"#utility.yul\":2572:2728   */\n    tag_74:\n        /* \"#utility.yul\":2636:2640   */\n      0x00\n        /* \"#utility.yul\":2659:2662   */\n      dup2\n        /* \"#utility.yul\":2651:2662   */\n      swap1\n      pop\n        /* \"#utility.yul\":2682:2685   */\n      dup2\n        /* \"#utility.yul\":2679:2680   */\n      0x00\n        /* \"#utility.yul\":2672:2686   */\n      mstore\n        /* \"#utility.yul\":2716:2720   */\n      0x20\n        /* \"#utility.yul\":2713:2714   */\n      0x00\n        /* \"#utility.yul\":2703:2721   */\n      keccak256\n        /* \"#utility.yul\":2695:2721   */\n      swap1\n      pop\n        /* \"#utility.yul\":2572:2728   */\n      swap2\n      swap1\n      pop\n      jump\t// out\n        /* \"#utility.yul\":2734:2842   */\n    tag_75:\n        /* \"#utility.yul\":2811:2835   */\n      tag_114\n        /* \"#utility.yul\":2829:2834   */\n      dup2\n        /* \"#utility.yul\":2811:2835   */\n      tag_66\n      jump\t// in\n    tag_114:\n        /* \"#utility.yul\":2806:2809   */\n      dup3\n        /* \"#utility.yul\":2799:2836   */\n      mstore\n        /* \"#utility.yul\":2734:2842   */\n      pop\n      pop\n      jump\t// out\n        /* \"#utility.yul\":2848:3027   */\n    tag_76:\n        /* \"#utility.yul\":2917:2927   */\n      0x00\n        /* \"#utility.yul\":2938:2984   */\n      tag_116\n        /* \"#utility.yul\":2980:2983   */\n      dup4\n        /* \"#utility.yul\":2972:2978   */\n      dup4\n        /* \"#utility.yul\":2938:2984   */\n      tag_75\n      jump\t// in\n    tag_116:\n        /* \"#utility.yul\":3016:3020   */\n      0x20\n        /* \"#utility.yul\":3011:3014   */\n      dup4\n        /* \"#utility.yul\":3007:3021   */\n      add\n        /* \"#utility.yul\":2993:3021   */\n      swap1\n      pop\n        /* \"#utility.yul\":2848:3027   */\n      swap3\n      swap2\n      pop\n      pop\n      jump\t// out\n        /* \"#utility.yul\":3033:3135   */\n    tag_77:\n        /* \"#utility.yul\":3075:3083   */\n      0x00\n        /* \"#utility.yul\":3122:3127   */\n      dup2\n        /* \"#utility.yul\":3119:3120   */\n      0x00\n        /* \"#utility.yul\":3115:3128   */\n      shr\n        /* \"#utility.yul\":3094:3128   */\n      swap1\n      pop\n        /* \"#utility.yul\":3033:3135   */\n      swap2\n      swap1\n      pop\n      jump\t// out\n        /* \"#utility.yul\":3141:3280   */\n    tag_78:\n        /* \"#utility.yul\":3191:3198   */\n      0x00\n        /* \"#utility.yul\":3231:3273   */\n      0xffffffffffffffffffffffffffffffffffffffff\n        /* \"#utility.yul\":3224:3229   */\n      dup3\n        /* \"#utility.yul\":3220:3274   */\n      and\n        /* \"#utility.yul\":3209:3274   */\n      swap1\n      pop\n        /* \"#utility.yul\":3141:3280   */\n      swap2\n      swap1\n      pop\n      jump\t// out\n        /* \"#utility.yul\":3286:3452   */\n    tag_79:\n        /* \"#utility.yul\":3355:3360   */\n      0x00\n        /* \"#utility.yul\":3380:3446   */\n      tag_120\n        /* \"#utility.yul\":3411:3445   */\n      tag_121\n        /* \"#utility.yul\":3434:3444   */\n      dup4\n        /* \"#utility.yul\":3411:3445   */\n      tag_77\n      jump\t// in\n    tag_121:\n        /* \"#utility.yul\":3380:3446   */\n      tag_78\n      jump\t// in\n    tag_120:\n        /* \"#utility.yul\":3371:3446   */\n      swap1\n      pop\n        /* \"#utility.yul\":3286:3452   */\n      swap2\n      swap1\n      pop\n      jump\t// out\n        /* \"#utility.yul\":3458:3602   */\n    tag_80:\n        /* \"#utility.yul\":3513:3518   */\n      0x00\n        /* \"#utility.yul\":3538:3595   */\n      tag_123\n        /* \"#utility.yul\":3589:3593   */\n      dup3\n        /* \"#utility.yul\":3583:3594   */\n      sload\n        /* \"#utility.yul\":3538:3595   */\n      tag_79\n      jump\t// in\n    tag_123:\n        /* \"#utility.yul\":3529:3595   */\n      swap1\n      pop\n        /* \"#utility.yul\":3458:3602   */\n      swap2\n      swap1\n      pop\n      jump\t// out\n        /* \"#utility.yul\":3608:3718   */\n    tag_81:\n        /* \"#utility.yul\":3675:3679   */\n      0x00\n        /* \"#utility.yul\":3707:3711   */\n      0x01\n        /* \"#utility.yul\":3702:3705   */\n      dup3\n        /* \"#utility.yul\":3698:3712   */\n      add\n        /* \"#utility.yul\":3690:3712   */\n      swap1\n      pop\n        /* \"#utility.yul\":3608:3718   */\n      swap2\n      swap1\n      pop\n      jump\t// out\n        /* \"#utility.yul\":3754:4505   */\n    tag_82:\n        /* \"#utility.yul\":3870:3873   */\n      0x00\n        /* \"#utility.yul\":3899:3950   */\n      tag_126\n        /* \"#utility.yul\":3944:3949   */\n      dup3\n        /* \"#utility.yul\":3899:3950   */\n      tag_72\n      jump\t// in\n    tag_126:\n        /* \"#utility.yul\":3966:4052   */\n      tag_127\n        /* \"#utility.yul\":4045:4051   */\n      dup2\n        /* \"#utility.yul\":4040:4043   */\n      dup6\n        /* \"#utility.yul\":3966:4052   */\n      tag_73\n      jump\t// in\n    tag_127:\n        /* \"#utility.yul\":3959:4052   */\n      swap4\n      pop\n        /* \"#utility.yul\":4076:4129   */\n      tag_128\n        /* \"#utility.yul\":4123:4128   */\n      dup4\n        /* \"#utility.yul\":4076:4129   */\n      tag_74\n      jump\t// in\n    tag_128:\n        /* \"#utility.yul\":4152:4159   */\n      dup1\n        /* \"#utility.yul\":4183:4184   */\n      0x00\n        /* \"#utility.yul\":4168:4480   */\n    tag_129:\n        /* \"#utility.yul\":4193:4199   */\n      dup4\n        /* \"#utility.yul\":4190:4191   */\n      dup2\n        /* \"#utility.yul\":4187:4200   */\n      lt\n        /* \"#utility.yul\":4168:4480   */\n      iszero\n      tag_131\n      jumpi\n        /* \"#utility.yul\":4263:4307   */\n      tag_132\n        /* \"#utility.yul\":4300:4306   */\n      dup3\n        /* \"#utility.yul\":4263:4307   */\n      tag_80\n      jump\t// in\n    tag_132:\n        /* \"#utility.yul\":4327:4390   */\n      tag_133\n        /* \"#utility.yul\":4386:4389   */\n      dup9\n        /* \"#utility.yul\":4371:4384   */\n      dup3\n        /* \"#utility.yul\":4327:4390   */\n      tag_76\n      jump\t// in\n    tag_133:\n        /* \"#utility.yul\":4320:4390   */\n      swap8\n      pop\n        /* \"#utility.yul\":4413:4470   */\n      tag_134\n        /* \"#utility.yul\":4463:4469   */\n      dup4\n        /* \"#utility.yul\":4413:4470   */\n      tag_81\n      jump\t// in\n    tag_134:\n        /* \"#utility.yul\":4403:4470   */\n      swap3\n      pop\n        /* \"#utility.yul\":4228:4480   */\n      pop\n        /* \"#utility.yul\":4215:4216   */\n      0x01\n        /* \"#utility.yul\":4212:4213   */\n      dup2\n        /* \"#utility.yul\":4208:4217   */\n      add\n        /* \"#utility.yul\":4203:4217   */\n      swap1\n      pop\n        /* \"#utility.yul\":4168:4480   */\n      jump(tag_129)\n    tag_131:\n        /* \"#utility.yul\":4172:4186   */\n      pop\n        /* \"#utility.yul\":4496:4499   */\n      dup6\n        /* \"#utility.yul\":4489:4499   */\n      swap4\n      pop\n        /* \"#utility.yul\":3875:4505   */\n      pop\n      pop\n      pop\n        /* \"#utility.yul\":3754:4505   */\n      swap3\n      swap2\n      pop\n      pop\n      jump\t// out\n        /* \"#utility.yul\":4511:5098   */\n    tag_48:\n        /* \"#utility.yul\":4707:4711   */\n      0x00\n        /* \"#utility.yul\":4745:4747   */\n      0x60\n        /* \"#utility.yul\":4734:4743   */\n      dup3\n        /* \"#utility.yul\":4730:4748   */\n      add\n        /* \"#utility.yul\":4722:4748   */\n      swap1\n      pop\n        /* \"#utility.yul\":4758:4829   */\n      tag_136\n        /* \"#utility.yul\":4826:4827   */\n      0x00\n        /* \"#utility.yul\":4815:4824   */\n      dup4\n        /* \"#utility.yul\":4811:4828   */\n      add\n        /* \"#utility.yul\":4802:4808   */\n      dup7\n        /* \"#utility.yul\":4758:4829   */\n      tag_69\n      jump\t// in\n    tag_136:\n        /* \"#utility.yul\":4839:4911   */\n      tag_137\n        /* \"#utility.yul\":4907:4909   */\n      0x20\n        /* \"#utility.yul\":4896:4905   */\n      dup4\n        /* \"#utility.yul\":4892:4910   */\n      add\n        /* \"#utility.yul\":4883:4889   */\n      dup6\n        /* \"#utility.yul\":4839:4911   */\n      tag_69\n      jump\t// in\n    tag_137:\n        /* \"#utility.yul\":4958:4967   */\n      dup2\n        /* \"#utility.yul\":4952:4956   */\n      dup2\n        /* \"#utility.yul\":4948:4968   */\n      sub\n        /* \"#utility.yul\":4943:4945   */\n      0x40\n        /* \"#utility.yul\":4932:4941   */\n      dup4\n        /* \"#utility.yul\":4928:4946   */\n      add\n        /* \"#utility.yul\":4921:4969   */\n      mstore\n        /* \"#utility.yul\":4986:5091   */\n      tag_138\n        /* \"#utility.yul\":5086:5090   */\n      dup2\n        /* \"#utility.yul\":5077:5083   */\n      dup5\n        /* \"#utility.yul\":4986:5091   */\n      tag_82\n      jump\t// in\n    tag_138:\n        /* \"#utility.yul\":4978:5091   */\n      swap1\n      pop\n        /* \"#utility.yul\":4511:5098   */\n      swap5\n      swap4\n      pop\n      pop\n      pop\n      pop\n      jump\t// out\n        /* \"#utility.yul\":5104:5337   */\n    tag_57:\n        /* \"#utility.yul\":5143:5146   */\n      0x00\n        /* \"#utility.yul\":5166:5190   */\n      tag_140\n        /* \"#utility.yul\":5184:5189   */\n      dup3\n        /* \"#utility.yul\":5166:5190   */\n      tag_68\n      jump\t// in\n    tag_140:\n        /* \"#utility.yul\":5157:5190   */\n      swap2\n      pop\n        /* \"#utility.yul\":5212:5278   */\n      0xffffffffffffffffffffffffffffffffffffffffffffffffffffffffffffffff\n        /* \"#utility.yul\":5205:5210   */\n      dup3\n        /* \"#utility.yul\":5202:5279   */\n      eq\n        /* \"#utility.yul\":5199:5302   */\n      iszero\n      tag_141\n      jumpi\n        /* \"#utility.yul\":5282:5300   */\n      tag_142\n      tag_71\n      jump\t// in\n    tag_142:\n        /* \"#utility.yul\":5199:5302   */\n    tag_141:\n        /* \"#utility.yul\":5329:5330   */\n      0x01\n        /* \"#utility.yul\":5322:5327   */\n      dup3\n        /* \"#utility.yul\":5318:5331   */\n      add\n        /* \"#utility.yul\":5311:5331   */\n      swap1\n      pop\n        /* \"#utility.yul\":5104:5337   */\n      swap2\n      swap1\n      pop\n      jump\t// out\n\n    auxdata: 0xa26469706673582212202d54ca8c4e6bee79a5cb75264b5e7d9976287f66b040574bd7ea18650bfd9a6e64736f6c634300080a0033\n}\n","bytecode":{"linkReferences":{},"object":"608060405234801561001057600080fd5b50336000806101000a81548173ffffffffffffffffffffffffffffffffffffffff021916908373ffffffffffffffffffffffffffffffffffffffff16021790555061091f806100606000396000f3fe6080604052600436106100345760003560e01c806327e605ec14610039578063e89fa4d714610064578063ed8b65561461006e575b600080fd5b34801561004557600080fd5b5061004e610099565b60405161005b91906105ac565b60405180910390f35b61006c61026e565b005b34801561007a57600080fd5b506100836103db565b60405161009091906105e0565b60405180910390f35b60008060009054906101000a900473ffffffffffffffffffffffffffffffffffffffff1673ffffffffffffffffffffffffffffffffffffffff163373ffffffffffffffffffffffffffffffffffffffff16146100f457600080fd5b60006003805490506101046103e5565b61010e919061062a565b90506000600382815481106101265761012561065b565b5b9060005260206000200160009054906101000a900473ffffffffffffffffffffffffffffffffffffffff16905060004790508173ffffffffffffffffffffffffffffffffffffffff166108fc829081150290604051600060405180830381858888f1935050505015801561019e573d6000803e3d6000fd5b5080600460008473ffffffffffffffffffffffffffffffffffffffff1673ffffffffffffffffffffffffffffffffffffffff16815260200190815260200160002060008282546101ee91906106b9565b925050819055506101fd61041b565b600067ffffffffffffffff8111156102185761021761070f565b5b6040519080825280602002602001820160405280156102465781602001602082028036833780820191505090505b506003908051906020019061025c9291906104c4565b50600060018190555081935050505090565b346001600082825461028091906106b9565b9250508190555060003390506000600260008373ffffffffffffffffffffffffffffffffffffffff1673ffffffffffffffffffffffffffffffffffffffff168152602001908152602001600020541415610381576003819080600181540180825580915050600190039060005260206000200160009091909190916101000a81548173ffffffffffffffffffffffffffffffffffffffff021916908373ffffffffffffffffffffffffffffffffffffffff16021790555034600260008373ffffffffffffffffffffffffffffffffffffffff1673ffffffffffffffffffffffffffffffffffffffff16815260200190815260200160002081905550506103d9565b34600260008373ffffffffffffffffffffffffffffffffffffffff1673ffffffffffffffffffffffffffffffffffffffff16815260200190815260200160002060008282546103d091906106b9565b92505081905550505b565b6000600154905090565b6000444260036040516020016103fd93929190610862565b6040516020818303038152906040528051906020012060001c905090565b60005b6003805490508110156104c157600060026000600384815481106104455761044461065b565b5b9060005260206000200160009054906101000a900473ffffffffffffffffffffffffffffffffffffffff1673ffffffffffffffffffffffffffffffffffffffff1673ffffffffffffffffffffffffffffffffffffffff1681526020019081526020016000208190555080806104b9906108a0565b91505061041e565b50565b82805482825590600052602060002090810192821561053d579160200282015b8281111561053c5782518260006101000a81548173ffffffffffffffffffffffffffffffffffffffff021916908373ffffffffffffffffffffffffffffffffffffffff160217905550916020019190600101906104e4565b5b50905061054a919061054e565b5090565b5b8082111561056757600081600090555060010161054f565b5090565b600073ffffffffffffffffffffffffffffffffffffffff82169050919050565b60006105968261056b565b9050919050565b6105a68161058b565b82525050565b60006020820190506105c1600083018461059d565b92915050565b6000819050919050565b6105da816105c7565b82525050565b60006020820190506105f560008301846105d1565b92915050565b7f4e487b7100000000000000000000000000000000000000000000000000000000600052601260045260246000fd5b6000610635826105c7565b9150610640836105c7565b9250826106505761064f6105fb565b5b828206905092915050565b7f4e487b7100000000000000000000000000000000000000000000000000000000600052603260045260246000fd5b7f4e487b7100000000000000000000000000000000000000000000000000000000600052601160045260246000fd5b60006106c4826105c7565b91506106cf836105c7565b9250827fffffffffffffffffffffffffffffffffffffffffffffffffffffffffffffffff038211156107045761070361068a565b5b828201905092915050565b7f4e487b7100000000000000000000000000000000000000000000000000000000600052604160045260246000fd5b600081549050919050565b600082825260208201905092915050565b60008190508160005260206000209050919050565b6107788161058b565b82525050565b600061078a838361076f565b60208301905092915050565b60008160001c9050919050565b600073ffffffffffffffffffffffffffffffffffffffff82169050919050565b60006107d66107d183610796565b6107a3565b9050919050565b60006107e982546107c3565b9050919050565b6000600182019050919050565b60006108088261073e565b6108128185610749565b935061081d8361075a565b8060005b8381101561085557610832826107dd565b61083c888261077e565b9750610847836107f0565b925050600181019050610821565b5085935050505092915050565b600060608201905061087760008301866105d1565b61088460208301856105d1565b818103604083015261089681846107fd565b9050949350505050565b60006108ab826105c7565b91507fffffffffffffffffffffffffffffffffffffffffffffffffffffffffffffffff8214156108de576108dd61068a565b5b60018201905091905056fea26469706673582212202d54ca8c4e6bee79a5cb75264b5e7d9976287f66b040574bd7ea18650bfd9a6e64736f6c634300080a0033","opcodes":"PUSH1 0x80 PUSH1 0x40 MSTORE CALLVALUE DUP1 ISZERO PUSH2 0x10 JUMPI PUSH1 0x0 DUP1 REVERT JUMPDEST POP CALLER PUSH1 0x0 DUP1 PUSH2 0x100 EXP DUP2 SLOAD DUP2 PUSH20 0xFFFFFFFFFFFFFFFFFFFFFFFFFFFFFFFFFFFFFFFF MUL NOT AND SWAP1 DUP4 PUSH20 0xFFFFFFFFFFFFFFFFFFFFFFFFFFFFFFFFFFFFFFFF AND MUL OR SWAP1 SSTORE POP PUSH2 0x91F DUP1 PUSH2 0x60 PUSH1 0x0 CODECOPY PUSH1 0x0 RETURN INVALID PUSH1 0x80 PUSH1 0x40 MSTORE PUSH1 0x4 CALLDATASIZE LT PUSH2 0x34 JUMPI PUSH1 0x0 CALLDATALOAD PUSH1 0xE0 SHR DUP1 PUSH4 0x27E605EC EQ PUSH2 0x39 JUMPI DUP1 PUSH4 0xE89FA4D7 EQ PUSH2 0x64 JUMPI DUP1 PUSH4 0xED8B6556 EQ PUSH2 0x6E JUMPI JUMPDEST PUSH1 0x0 DUP1 REVERT JUMPDEST CALLVALUE DUP1 ISZERO PUSH2 0x45 JUMPI PUSH1 0x0 DUP1 REVERT JUMPDEST POP PUSH2 0x4E PUSH2 0x99 JUMP JUMPDEST PUSH1 0x40 MLOAD PUSH2 0x5B SWAP2 SWAP1 PUSH2 0x5AC JUMP JUMPDEST PUSH1 0x40 MLOAD DUP1 SWAP2 SUB SWAP1 RETURN JUMPDEST PUSH2 0x6C PUSH2 0x26E JUMP JUMPDEST STOP JUMPDEST CALLVALUE DUP1 ISZERO PUSH2 0x7A JUMPI PUSH1 0x0 DUP1 REVERT JUMPDEST POP PUSH2 0x83 PUSH2 0x3DB JUMP JUMPDEST PUSH1 0x40 MLOAD PUSH2 0x90 SWAP2 SWAP1 PUSH2 0x5E0 JUMP JUMPDEST PUSH1 0x40 MLOAD DUP1 SWAP2 SUB SWAP1 RETURN JUMPDEST PUSH1 0x0 DUP1 PUSH1 0x0 SWAP1 SLOAD SWAP1 PUSH2 0x100 EXP SWAP1 DIV PUSH20 0xFFFFFFFFFFFFFFFFFFFFFFFFFFFFFFFFFFFFFFFF AND PUSH20 0xFFFFFFFFFFFFFFFFFFFFFFFFFFFFFFFFFFFFFFFF AND CALLER PUSH20 0xFFFFFFFFFFFFFFFFFFFFFFFFFFFFFFFFFFFFFFFF AND EQ PUSH2 0xF4 JUMPI PUSH1 0x0 DUP1 REVERT JUMPDEST PUSH1 0x0 PUSH1 0x3 DUP1 SLOAD SWAP1 POP PUSH2 0x104 PUSH2 0x3E5 JUMP JUMPDEST PUSH2 0x10E SWAP2 SWAP1 PUSH2 0x62A JUMP JUMPDEST SWAP1 POP PUSH1 0x0 PUSH1 0x3 DUP3 DUP2 SLOAD DUP2 LT PUSH2 0x126 JUMPI PUSH2 0x125 PUSH2 0x65B JUMP JUMPDEST JUMPDEST SWAP1 PUSH1 0x0 MSTORE PUSH1 0x20 PUSH1 0x0 KECCAK256 ADD PUSH1 0x0 SWAP1 SLOAD SWAP1 PUSH2 0x100 EXP SWAP1 DIV PUSH20 0xFFFFFFFFFFFFFFFFFFFFFFFFFFFFFFFFFFFFFFFF AND SWAP1 POP PUSH1 0x0 SELFBALANCE SWAP1 POP DUP2 PUSH20 0xFFFFFFFFFFFFFFFFFFFFFFFFFFFFFFFFFFFFFFFF AND PUSH2 0x8FC DUP3 SWAP1 DUP2 ISZERO MUL SWAP1 PUSH1 0x40 MLOAD PUSH1 0x0 PUSH1 0x40 MLOAD DUP1 DUP4 SUB DUP2 DUP6 DUP9 DUP9 CALL SWAP4 POP POP POP POP ISZERO DUP1 ISZERO PUSH2 0x19E JUMPI RETURNDATASIZE PUSH1 0x0 DUP1 RETURNDATACOPY RETURNDATASIZE PUSH1 0x0 REVERT JUMPDEST POP DUP1 PUSH1 0x4 PUSH1 0x0 DUP5 PUSH20 0xFFFFFFFFFFFFFFFFFFFFFFFFFFFFFFFFFFFFFFFF AND PUSH20 0xFFFFFFFFFFFFFFFFFFFFFFFFFFFFFFFFFFFFFFFF AND DUP2 MSTORE PUSH1 0x20 ADD SWAP1 DUP2 MSTORE PUSH1 0x20 ADD PUSH1 0x0 KECCAK256 PUSH1 0x0 DUP3 DUP3 SLOAD PUSH2 0x1EE SWAP2 SWAP1 PUSH2 0x6B9 JUMP JUMPDEST SWAP3 POP POP DUP2 SWAP1 SSTORE POP PUSH2 0x1FD PUSH2 0x41B JUMP JUMPDEST PUSH1 0x0 PUSH8 0xFFFFFFFFFFFFFFFF DUP2 GT ISZERO PUSH2 0x218 JUMPI PUSH2 0x217 PUSH2 0x70F JUMP JUMPDEST JUMPDEST PUSH1 0x40 MLOAD SWAP1 DUP1 DUP3 MSTORE DUP1 PUSH1 0x20 MUL PUSH1 0x20 ADD DUP3 ADD PUSH1 0x40 MSTORE DUP1 ISZERO PUSH2 0x246 JUMPI DUP2 PUSH1 0x20 ADD PUSH1 0x20 DUP3 MUL DUP1 CALLDATASIZE DUP4 CALLDATACOPY DUP1 DUP3 ADD SWAP2 POP POP SWAP1 POP JUMPDEST POP PUSH1 0x3 SWAP1 DUP1 MLOAD SWAP1 PUSH1 0x20 ADD SWAP1 PUSH2 0x25C SWAP3 SWAP2 SWAP1 PUSH2 0x4C4 JUMP JUMPDEST POP PUSH1 0x0 PUSH1 0x1 DUP2 SWAP1 SSTORE POP DUP2 SWAP4 POP POP POP POP SWAP1 JUMP JUMPDEST CALLVALUE PUSH1 0x1 PUSH1 0x0 DUP3 DUP3 SLOAD PUSH2 0x280 SWAP2 SWAP1 PUSH2 0x6B9 JUMP JUMPDEST SWAP3 POP POP DUP2 SWAP1 SSTORE POP PUSH1 0x0 CALLER SWAP1 POP PUSH1 0x0 PUSH1 0x2 PUSH1 0x0 DUP4 PUSH20 0xFFFFFFFFFFFFFFFFFFFFFFFFFFFFFFFFFFFFFFFF AND PUSH20 0xFFFFFFFFFFFFFFFFFFFFFFFFFFFFFFFFFFFFFFFF AND DUP2 MSTORE PUSH1 0x20 ADD SWAP1 DUP2 MSTORE PUSH1 0x20 ADD PUSH1 0x0 KECCAK256 SLOAD EQ ISZERO PUSH2 0x381 JUMPI PUSH1 0x3 DUP2 SWAP1 DUP1 PUSH1 0x1 DUP2 SLOAD ADD DUP1 DUP3 SSTORE DUP1 SWAP2 POP POP PUSH1 0x1 SWAP1 SUB SWAP1 PUSH1 0x0 MSTORE PUSH1 0x20 PUSH1 0x0 KECCAK256 ADD PUSH1 0x0 SWAP1 SWAP2 SWAP1 SWAP2 SWAP1 SWAP2 PUSH2 0x100 EXP DUP2 SLOAD DUP2 PUSH20 0xFFFFFFFFFFFFFFFFFFFFFFFFFFFFFFFFFFFFFFFF MUL NOT AND SWAP1 DUP4 PUSH20 0xFFFFFFFFFFFFFFFFFFFFFFFFFFFFFFFFFFFFFFFF AND MUL OR SWAP1 SSTORE POP CALLVALUE PUSH1 0x2 PUSH1 0x0 DUP4 PUSH20 0xFFFFFFFFFFFFFFFFFFFFFFFFFFFFFFFFFFFFFFFF AND PUSH20 0xFFFFFFFFFFFFFFFFFFFFFFFFFFFFFFFFFFFFFFFF AND DUP2 MSTORE PUSH1 0x20 ADD SWAP1 DUP2 MSTORE PUSH1 0x20 ADD PUSH1 0x0 KECCAK256 DUP2 SWAP1 SSTORE POP POP PUSH2 0x3D9 JUMP JUMPDEST CALLVALUE PUSH1 0x2 PUSH1 0x0 DUP4 PUSH20 0xFFFFFFFFFFFFFFFFFFFFFFFFFFFFFFFFFFFFFFFF AND PUSH20 0xFFFFFFFFFFFFFFFFFFFFFFFFFFFFFFFFFFFFFFFF AND DUP2 MSTORE PUSH1 0x20 ADD SWAP1 DUP2 MSTORE PUSH1 0x20 ADD PUSH1 0x0 KECCAK256 PUSH1 0x0 DUP3 DUP3 SLOAD PUSH2 0x3D0 SWAP2 SWAP1 PUSH2 0x6B9 JUMP JUMPDEST SWAP3 POP POP DUP2 SWAP1 SSTORE POP POP JUMPDEST JUMP JUMPDEST PUSH1 0x0 PUSH1 0x1 SLOAD SWAP1 POP SWAP1 JUMP JUMPDEST PUSH1 0x0 DIFFICULTY TIMESTAMP PUSH1 0x3 PUSH1 0x40 MLOAD PUSH1 0x20 ADD PUSH2 0x3FD SWAP4 SWAP3 SWAP2 SWAP1 PUSH2 0x862 JUMP JUMPDEST PUSH1 0x40 MLOAD PUSH1 0x20 DUP2 DUP4 SUB SUB DUP2 MSTORE SWAP1 PUSH1 0x40 MSTORE DUP1 MLOAD SWAP1 PUSH1 0x20 ADD KECCAK256 PUSH1 0x0 SHR SWAP1 POP SWAP1 JUMP JUMPDEST PUSH1 0x0 JUMPDEST PUSH1 0x3 DUP1 SLOAD SWAP1 POP DUP2 LT ISZERO PUSH2 0x4C1 JUMPI PUSH1 0x0 PUSH1 0x2 PUSH1 0x0 PUSH1 0x3 DUP5 DUP2 SLOAD DUP2 LT PUSH2 0x445 JUMPI PUSH2 0x444 PUSH2 0x65B JUMP JUMPDEST JUMPDEST SWAP1 PUSH1 0x0 MSTORE PUSH1 0x20 PUSH1 0x0 KECCAK256 ADD PUSH1 0x0 SWAP1 SLOAD SWAP1 PUSH2 0x100 EXP SWAP1 DIV PUSH20 0xFFFFFFFFFFFFFFFFFFFFFFFFFFFFFFFFFFFFFFFF AND PUSH20 0xFFFFFFFFFFFFFFFFFFFFFFFFFFFFFFFFFFFFFFFF AND PUSH20 0xFFFFFFFFFFFFFFFFFFFFFFFFFFFFFFFFFFFFFFFF AND DUP2 MSTORE PUSH1 0x20 ADD SWAP1 DUP2 MSTORE PUSH1 0x20 ADD PUSH1 0x0 KECCAK256 DUP2 SWAP1 SSTORE POP DUP1 DUP1 PUSH2 0x4B9 SWAP1 PUSH2 0x8A0 JUMP JUMPDEST SWAP2 POP POP PUSH2 0x41E JUMP JUMPDEST POP JUMP JUMPDEST DUP3 DUP1 SLOAD DUP3 DUP3 SSTORE SWAP1 PUSH1 0x0 MSTORE PUSH1 0x20 PUSH1 0x0 KECCAK256 SWAP1 DUP2 ADD SWAP3 DUP3 ISZERO PUSH2 0x53D JUMPI SWAP2 PUSH1 0x20 MUL DUP3 ADD JUMPDEST DUP3 DUP2 GT ISZERO PUSH2 0x53C JUMPI DUP3 MLOAD DUP3 PUSH1 0x0 PUSH2 0x100 EXP DUP2 SLOAD DUP2 PUSH20 0xFFFFFFFFFFFFFFFFFFFFFFFFFFFFFFFFFFFFFFFF MUL NOT AND SWAP1 DUP4 PUSH20 0xFFFFFFFFFFFFFFFFFFFFFFFFFFFFFFFFFFFFFFFF AND MUL OR SWAP1 SSTORE POP SWAP2 PUSH1 0x20 ADD SWAP2 SWAP1 PUSH1 0x1 ADD SWAP1 PUSH2 0x4E4 JUMP JUMPDEST JUMPDEST POP SWAP1 POP PUSH2 0x54A SWAP2 SWAP1 PUSH2 0x54E JUMP JUMPDEST POP SWAP1 JUMP JUMPDEST JUMPDEST DUP1 DUP3 GT ISZERO PUSH2 0x567 JUMPI PUSH1 0x0 DUP2 PUSH1 0x0 SWAP1 SSTORE POP PUSH1 0x1 ADD PUSH2 0x54F JUMP JUMPDEST POP SWAP1 JUMP JUMPDEST PUSH1 0x0 PUSH20 0xFFFFFFFFFFFFFFFFFFFFFFFFFFFFFFFFFFFFFFFF DUP3 AND SWAP1 POP SWAP2 SWAP1 POP JUMP JUMPDEST PUSH1 0x0 PUSH2 0x596 DUP3 PUSH2 0x56B JUMP JUMPDEST SWAP1 POP SWAP2 SWAP1 POP JUMP JUMPDEST PUSH2 0x5A6 DUP2 PUSH2 0x58B JUMP JUMPDEST DUP3 MSTORE POP POP JUMP JUMPDEST PUSH1 0x0 PUSH1 0x20 DUP3 ADD SWAP1 POP PUSH2 0x5C1 PUSH1 0x0 DUP4 ADD DUP5 PUSH2 0x59D JUMP JUMPDEST SWAP3 SWAP2 POP POP JUMP JUMPDEST PUSH1 0x0 DUP2 SWAP1 POP SWAP2 SWAP1 POP JUMP JUMPDEST PUSH2 0x5DA DUP2 PUSH2 0x5C7 JUMP JUMPDEST DUP3 MSTORE POP POP JUMP JUMPDEST PUSH1 0x0 PUSH1 0x20 DUP3 ADD SWAP1 POP PUSH2 0x5F5 PUSH1 0x0 DUP4 ADD DUP5 PUSH2 0x5D1 JUMP JUMPDEST SWAP3 SWAP2 POP POP JUMP JUMPDEST PUSH32 0x4E487B7100000000000000000000000000000000000000000000000000000000 PUSH1 0x0 MSTORE PUSH1 0x12 PUSH1 0x4 MSTORE PUSH1 0x24 PUSH1 0x0 REVERT JUMPDEST PUSH1 0x0 PUSH2 0x635 DUP3 PUSH2 0x5C7 JUMP JUMPDEST SWAP2 POP PUSH2 0x640 DUP4 PUSH2 0x5C7 JUMP JUMPDEST SWAP3 POP DUP3 PUSH2 0x650 JUMPI PUSH2 0x64F PUSH2 0x5FB JUMP JUMPDEST JUMPDEST DUP3 DUP3 MOD SWAP1 POP SWAP3 SWAP2 POP POP JUMP JUMPDEST PUSH32 0x4E487B7100000000000000000000000000000000000000000000000000000000 PUSH1 0x0 MSTORE PUSH1 0x32 PUSH1 0x4 MSTORE PUSH1 0x24 PUSH1 0x0 REVERT JUMPDEST PUSH32 0x4E487B7100000000000000000000000000000000000000000000000000000000 PUSH1 0x0 MSTORE PUSH1 0x11 PUSH1 0x4 MSTORE PUSH1 0x24 PUSH1 0x0 REVERT JUMPDEST PUSH1 0x0 PUSH2 0x6C4 DUP3 PUSH2 0x5C7 JUMP JUMPDEST SWAP2 POP PUSH2 0x6CF DUP4 PUSH2 0x5C7 JUMP JUMPDEST SWAP3 POP DUP3 PUSH32 0xFFFFFFFFFFFFFFFFFFFFFFFFFFFFFFFFFFFFFFFFFFFFFFFFFFFFFFFFFFFFFFFF SUB DUP3 GT ISZERO PUSH2 0x704 JUMPI PUSH2 0x703 PUSH2 0x68A JUMP JUMPDEST JUMPDEST DUP3 DUP3 ADD SWAP1 POP SWAP3 SWAP2 POP POP JUMP JUMPDEST PUSH32 0x4E487B7100000000000000000000000000000000000000000000000000000000 PUSH1 0x0 MSTORE PUSH1 0x41 PUSH1 0x4 MSTORE PUSH1 0x24 PUSH1 0x0 REVERT JUMPDEST PUSH1 0x0 DUP2 SLOAD SWAP1 POP SWAP2 SWAP1 POP JUMP JUMPDEST PUSH1 0x0 DUP3 DUP3 MSTORE PUSH1 0x20 DUP3 ADD SWAP1 POP SWAP3 SWAP2 POP POP JUMP JUMPDEST PUSH1 0x0 DUP2 SWAP1 POP DUP2 PUSH1 0x0 MSTORE PUSH1 0x20 PUSH1 0x0 KECCAK256 SWAP1 POP SWAP2 SWAP1 POP JUMP JUMPDEST PUSH2 0x778 DUP2 PUSH2 0x58B JUMP JUMPDEST DUP3 MSTORE POP POP JUMP JUMPDEST PUSH1 0x0 PUSH2 0x78A DUP4 DUP4 PUSH2 0x76F JUMP JUMPDEST PUSH1 0x20 DUP4 ADD SWAP1 POP SWAP3 SWAP2 POP POP JUMP JUMPDEST PUSH1 0x0 DUP2 PUSH1 0x0 SHR SWAP1 POP SWAP2 SWAP1 POP JUMP JUMPDEST PUSH1 0x0 PUSH20 0xFFFFFFFFFFFFFFFFFFFFFFFFFFFFFFFFFFFFFFFF DUP3 AND SWAP1 POP SWAP2 SWAP1 POP JUMP JUMPDEST PUSH1 0x0 PUSH2 0x7D6 PUSH2 0x7D1 DUP4 PUSH2 0x796 JUMP JUMPDEST PUSH2 0x7A3 JUMP JUMPDEST SWAP1 POP SWAP2 SWAP1 POP JUMP JUMPDEST PUSH1 0x0 PUSH2 0x7E9 DUP3 SLOAD PUSH2 0x7C3 JUMP JUMPDEST SWAP1 POP SWAP2 SWAP1 POP JUMP JUMPDEST PUSH1 0x0 PUSH1 0x1 DUP3 ADD SWAP1 POP SWAP2 SWAP1 POP JUMP JUMPDEST PUSH1 0x0 PUSH2 0x808 DUP3 PUSH2 0x73E JUMP JUMPDEST PUSH2 0x812 DUP2 DUP6 PUSH2 0x749 JUMP JUMPDEST SWAP4 POP PUSH2 0x81D DUP4 PUSH2 0x75A JUMP JUMPDEST DUP1 PUSH1 0x0 JUMPDEST DUP4 DUP2 LT ISZERO PUSH2 0x855 JUMPI PUSH2 0x832 DUP3 PUSH2 0x7DD JUMP JUMPDEST PUSH2 0x83C DUP9 DUP3 PUSH2 0x77E JUMP JUMPDEST SWAP8 POP PUSH2 0x847 DUP4 PUSH2 0x7F0 JUMP JUMPDEST SWAP3 POP POP PUSH1 0x1 DUP2 ADD SWAP1 POP PUSH2 0x821 JUMP JUMPDEST POP DUP6 SWAP4 POP POP POP POP SWAP3 SWAP2 POP POP JUMP JUMPDEST PUSH1 0x0 PUSH1 0x60 DUP3 ADD SWAP1 POP PUSH2 0x877 PUSH1 0x0 DUP4 ADD DUP7 PUSH2 0x5D1 JUMP JUMPDEST PUSH2 0x884 PUSH1 0x20 DUP4 ADD DUP6 PUSH2 0x5D1 JUMP JUMPDEST DUP2 DUP2 SUB PUSH1 0x40 DUP4 ADD MSTORE PUSH2 0x896 DUP2 DUP5 PUSH2 0x7FD JUMP JUMPDEST SWAP1 POP SWAP5 SWAP4 POP POP POP POP JUMP JUMPDEST PUSH1 0x0 PUSH2 0x8AB DUP3 PUSH2 0x5C7 JUMP JUMPDEST SWAP2 POP PUSH32 0xFFFFFFFFFFFFFFFFFFFFFFFFFFFFFFFFFFFFFFFFFFFFFFFFFFFFFFFFFFFFFFFF DUP3 EQ ISZERO PUSH2 0x8DE JUMPI PUSH2 0x8DD PUSH2 0x68A JUMP JUMPDEST JUMPDEST PUSH1 0x1 DUP3 ADD SWAP1 POP SWAP2 SWAP1 POP JUMP INVALID LOG2 PUSH5 0x6970667358 0x22 SLT KECCAK256 0x2D SLOAD 0xCA DUP13 0x4E PUSH12 0xEE79A5CB75264B5E7D997628 PUSH32 0x66B040574BD7EA18650BFD9A6E64736F6C634300080A00330000000000000000 "},"gasEstimates":{"creation":{"codeDepositCost":"467000","executionCost":"24765","totalCost":"491765"},"external":{"depositIntoJackpot()":"infinite","drawLottery()":"infinite","getJackpotAmount()":"2459"},"internal":{"random()":"infinite","resetPlayersToAmountDeposited()":"infinite"}},"methodIdentifiers":{"depositIntoJackpot()":"e89fa4d7","drawLottery()":"27e605ec","getJackpotAmount()":"ed8b6556"}},"storageLayout":{"storage":[{"astId":3,"contract":"Lottery.sol:Lottery","label":"ownerAddress","offset":0,"slot":"0","type":"t_address"},{"astId":5,"contract":"Lottery.sol:Lottery","label":"jackpotAmount","offset":0,"slot":"1","type":"t_uint256"},{"astId":9,"contract":"Lottery.sol:Lottery","label":"playersToAmountDeposited","offset":0,"slot":"2","type":"t_mapping(t_address,t_uint256)"},{"astId":12,"contract":"Lottery.sol:Lottery","label":"players","offset":0,"slot":"3","type":"t_array(t_address)dyn_storage"},{"astId":16,"contract":"Lottery.sol:Lottery","label":"winnersHistory","offset":0,"slot":"4","type":"t_mapping(t_address,t_uint256)"}],"types":{"t_address":{"encoding":"inplace","label":"address","numberOfBytes":"20"},"t_array(t_address)dyn_storage":{"base":"t_address","encoding":"dynamic_array","label":"address[]","numberOfBytes":"32"},"t_mapping(t_address,t_uint256)":{"encoding":"mapping","key":"t_address","label":"mapping(address => uint256)","numberOfBytes":"32","value":"t_uint256"},"t_uint256":{"encoding":"inplace","label":"uint256","numberOfBytes":"32"}}},"userdoc":{"kind":"user","methods":{},"version":1}}